S01E00004175746F6E6F6D6F7573204361722050726F6A6563742E737265639F
S11300000C942A000C9447000C9447000C9447006D
S11300100C9447000C9447000C9447000C94470040
S11300200C9447000C9447000C941C060C94470055
S11300300C9447000C9447000C9447000C94470020
S11300400C9447000C9447000C9447000C94470010
S11300500C94470011241FBECFE5D8E0DEBFCDBF0E
S113006011E0A0E6B0E0ECE0F0E102C005900D92F2
S1130070AE31B107D9F721E0AEE1B1E001C01D9284
S1130080A032B207E1F70E94F7020C9404080C9422
S11300900000683008F078C04130C1F5813091F03B
S11300A028F08230D9F0833029F170C02AB381E07E
S11300B090E002C0880F991F6A95E2F7822B8ABBF1
S11300C081E0089527B381E090E002C0880F991F72
S11300D06A95E2F7822B87BB81E0089524B381E01F
S11300E090E002C0880F991F6A95E2F7822B84BBC7
S11300F081E0089521B381E090E002C0880F991F48
S11301006A95E2F7822B81BB81E00895411140C0DA
S1130110813099F028F08230E9F0833041F13AC01F
S11301202AB381E090E002C0880F991F6A95E2F734
S1130130809582238ABB81E0089527B381E090E013
S113014002C0880F991F6A95E2F78095822387BBC6
S113015081E0089524B381E090E002C0880F991FE4
S11301606A95E2F78095822384BB81E0089521B3E8
S113017081E090E002C0880F991F6A95E2F78095AC
S1130180822381BB81E0089580E0089580E0089592
S113019080E0089580E00895683008F078C0413028
S11301A0C1F5813091F028F08230D9F0833029F103
S11301B070C02BB381E090E002C0880F991F6A954C
S11301C0E2F7822B8BBB81E0089528B381E090E0B5
S11301D002C0880F991F6A95E2F7822B88BB81E0E1
S11301E0089525B381E090E002C0880F991F6A95B5
S11301F0E2F7822B85BB81E0089522B381E090E091
S113020002C0880F991F6A95E2F7822B82BB81E0B6
S11302100895411140C0813099F028F08230E9F00E
S1130220833041F13AC02BB381E090E002C0880FE3
S1130230991F6A95E2F7809582238BBB81E008952C
S113024028B381E090E002C0880F991F6A95E2F715
S11302508095822388BB81E0089525B381E090E0F6
S113026002C0880F991F6A95E2F78095822385BBA7
S113027081E0089522B381E090E002C0880F991FC5
S11302806A95E2F78095822382BB81E0089580E03D
S1130290089580E0089580E0089580E0089568302E
S11302A0C0F5813091F028F08230D9F0833029F103
S11302B032C089B390E002C0959587956A95E2F7BC
S11302C08170FA01808381E0089586B390E002C0D2
S11302D0959587956A95E2F78170FA01808381E0AC
S11302E0089583B390E002C0959587956A95E2F7E7
S11302F08170FA01808381E0089580B390E002C0A8
S1130300959587956A95E2F78170FA01808381E07B
S1130310089580E0089580E008958FB780688FBFC6
S1130320089541E065E083E00E94490041E064E013
S113033083E00E94490041E063E082E00E944900BA
S113034041E064E082E00E94490041E065E082E02F
S11303500E94490041E066E082E00E94490008955D
S113036041E063E082E00E94CC0040E064E082E08F
S11303700E94CC0041E065E082E00E94CC0040E0B5
S113038066E082E00E94CC000895CF92DF92EF9263
S1130390FF9269017A0120E03FE34CE157E40E94B7
S11303A06F070E94DA06CB010E94680620E03FE353
S11303B04CE157E4C701B6010E946F070E94DA06B8
S11303C0CB010E946506FF90EF90DF90CF900895D7
S11303D040E063E082E00E94CC0041E064E082E01F
S11303E00E94CC0040E065E082E00E94CC0041E045
S11303F066E082E00E94CC00089541E063E082E080
S11304000E94CC0040E064E082E00E94CC0040E026
S113041065E082E00E94CC0040E066E082E00E9459
S1130420CC00089540E063E082E00E94CC0040E00C
S113043064E082E00E94CC0041E065E082E00E943A
S1130440CC0040E066E082E00E94CC00089540E0E9
S113045063E082E00E94CC0040E064E082E00E941D
S1130460CC0040E065E082E00E94CC0040E066E021
S113047082E00E94CC000895CF93C82F482F41708A
S113048064E080E00E94CC00C1FB442740F965E0B1
S113049080E00E94CC00C2FB442740F966E080E083
S11304A00E94CC00C3FB442740F967E080E00E942F
S11304B0CC00CF91089541E063E081E00E94CC003C
S11304C08FE39FE10197F1F700C0000040E063E093
S11304D081E00E94CC000895CF93C82F40E061E0F2
S11304E081E00E94CC0040E062E081E00E94CC0008
S11304F08C2F82958F700E943C020E945B028C2F8D
S11305000E943C020E945B02CF9108958FE00E94FA
S11305106C022FEF83EF91E0215080409040E1F78F
S113052000C0000082E00E943C020E945B0282E064
S11305300E943C020E945B028CE00E943C020E94EA
S11305405B020895CF93C82F41E061E081E00E94EF
S1130550CC0040E062E081E00E94CC008C2F8295C8
S11305608F700E943C020E945B028C2F0E943C020E
S11305700E945B02CF9108950F931F93CF938C0138
S1130580C0E003C00E94A202CF5FF801EC0FF11D8E
S113059080818111F7CFCF911F910F91089541E090
S11305A062E081E00E94490041E063E081E00E9452
S11305B0490041E061E081E00E94490041E064E0DB
S11305C080E00E94490041E065E080E00E9449002B
S11305D041E066E080E00E94490041E067E080E09D
S11305E00E944900089581E00E946C020895CF930F
S11305F0DF93CDB7DEB7CE5BD1090FB6F894DEBF7B
S11306000FBECDBF8EE0E0E6F0E0DE011196019072
S11306100D928A95E1F780E1EEE6F0E0DE011F96A7
S113062001900D928A95E1F78FE0EEE7F0E0DE01AC
S11306305F9601900D928A95E1F78FE0EDE8F0E086
S1130640DE019E9601900D928A95E1F78FE0ECE928
S1130650F0E0DE01DD9601900D928A95E1F78FE0DE
S1130660EBEAF0E0DE01A45BBF4F01900D928A95A6
S1130670E1F78FE0EAEBF0E0DE01A55ABF4F01900D
S11306800D928A95E1F78FE0E9ECF0E0DE01A659DE
S1130690BF4F01900D928A95E1F78EE0E8EDF0E00E
S11306A0DE01A758BF4F01900D928A95E1F78EE0C5
S11306B0E6EEF0E0DE01A957BF4F01900D928A9556
S11306C0E1F78EE0E4EFF0E0DE01AB56BF4F0190BE
S11306D00D928A95E1F78EE0E2E0F1E0DE01AD559E
S11306E0BF4F01900D928A95E1F78EE0E0E1F1E0D1
S11306F0DE01AF54BF4F01900D928A95E1F70E943D
S1130700CF020E9486020E94F4050E9433060E94D2
S113071091010E94B6060E9400050E94F302CE01D8
S113072001960E94BC020E9406050E94B00120E0CE
S113073030E040E85FE3CA01B9010E94C5010E94AC
S1130740C10602C00E94C1064A97E0F70E94270230
S11307500E94E80120E030E040E85FE3CA01B9010B
S11307600E94C5012FEF83ED90E32150804090401B
S1130770E1F700C000000E9427020E94F302CE01AC
S11307800F960E94BC020E948105182F883009F43C
S113079043C028F4863061F0873021F106C08930E7
S11307A009F455C08A3009F46DC00E94270284C040
S11307B00E94F302CE018E960E94BC020E94120295
S11307C020E030E040E85FE3CA01B9010E94C501BE
S11307D02FEF81EE94E0215080409040E1F700C07B
S11307E000006AC00E94F302CE01CD960E94BC02B2
S11307F00E94120220E030E040E85FE3CA01B90140
S11308000E94C5012FEF83EC99E021508040904075
S1130810E1F700C0000050C00E94F302CE01845BE7
S11308209F4F0E94BC020E94120220E030E040E888
S11308305FE3CA01B9010E94C5012FEF85EA9EE07A
S1130840215080409040E1F700C0000035C00E9474
S1130850F302CE01855A9F4F0E94BC020E941202ED
S113086020E030E040E85FE3CA01B9010E94C5011D
S11308702FEF87E893E1215080409040E1F700C0DA
S113088000001AC00E94F302CE0186599F4F0E94B5
S1130890BC020E94120220E030E040E85FE3CA019B
S11308A0B9010E94C5012FEF8BE49DE121508040E6
S11308B09040E1F700C000001B3009F02ECF0E94E9
S11308C0F302CE014F960E94BC020E9414058230AE
S11308D009F445C028F4882361F0813029F106C069
S11308E0833009F457C0843009F46FC00E94270292
S11308F014CF0E94F302CE0187589F4F0E94BC027E
S11309000E94FD0120E030E040E85FE3CA01B90144
S11309100E94C5012FEF81EE94E021508040904069
S1130920E1F700C00000F9CE0E94F302CE0189571E
S11309309F4F0E94BC020E94FD0120E030E040E88D
S11309405FE3CA01B9010E94C5012FEF83EC99E06E
S1130950215080409040E1F700C00000DECE0E94AC
S1130960F302CE018B569F4F0E94BC020E94FD01F0
S113097020E030E040E85FE3CA01B9010E94C5010C
S11309802FEF85EA9EE0215080409040E1F700C0BF
S11309900000C3CE0E94F302CE018D559F4F0E94EA
S11309A0BC020E94FD0120E030E040E85FE3CA01A0
S11309B0B9010E94C5012FEF87E893E121508040DF
S11309C09040E1F700C00000A8CE0E94F302CE01DF
S11309D08F549F4F0E94BC020E94FD0120E030E032
S11309E040E85FE3CA01B9010E94C5012FEF8BE41F
S11309F09DE1215080409040E1F700C000008DCE81
S1130A0041E064E083E00E944900089588EB9BE0A4
S1130A100E9465062FEF89E698E1215080409040BE
S1130A20E1F700C000000895FF920F931F93CF9346
S1130A30DF930F2EF5E0FF2EF02D00E010E0C8EB61
S1130A40DBE051C0CE010E9465068FE99FE001976B
S1130A50F1F700C00000C8349DE0D90781F0C83D1B
S1130A608EE0D80761F0C83690E1D90741F0C83F5D
S1130A7081E1D80721F0C83893E1D90719F40E941D
S1130A80C1068C010A31110528F0C8348DE0D8075D
S1130A9009F4F12C0A31110530F0C83D9EE0D90764
S1130AA011F4FF24F3940A31110538F0C83680E1BB
S1130AB0D80719F46894FF24F1F80A31110540F0BD
S1130AC0C83F91E1D90721F40F2EF3E0FF2EF02D5A
S1130AD00A31110538F0C83883E1D80719F468944D
S1130AE0FF24F2F82196C93893E1D90708F4AACF74
S1130AF00E9406058F2DDF91CF911F910F91FF90DA
S1130B000895FF920F931F93CF93DF930F2EFBE073
S1130B10FF2EF02D00E010E0C8EBDBE057C0CE0163
S1130B200E9465068FE99FE00197F1F700C000007D
S1130B30C8329AE0D90781F0C83988E0D80761F053
S1130B40C83097E0D90741F0C83785E0D80721F0CD
S1130B50C83E93E0D90719F40E94C1068C010A31FA
S1130B60110540F0C8328AE0D80721F40F2EF6E0D0
S1130B70FF2EF02D0A31110540F0C83998E0D9074D
S1130B8021F40F2EF7E0FF2EF02D0A31110538F075
S1130B90C83087E0D80719F46894FF24F3F80A31C1
S1130BA0110540F0C83795E0D90721F40F2EF9E07C
S1130BB0FF2EF02D0A31110540F0C83E83E0D8071E
S1130BC021F40F2EFAE0FF2EF02D2197C83E93E07A
S1130BD0D90708F0A4CF0E9406058F2DDF91CF918D
S1130BE01F910F91FF90089583B7886083BF83B7E7
S1130BF08F7B83BF83B78F7E83BF83B78F7D83BF94
S1130C0089B7826089BF0E948D018FEF8CBF0895E0
S1130C1012BE10921F0110921E0183B78E7F83BFF4
S1130C2083B78D7F83BF83B78B7F83BF83B7836095
S1130C3083BF089513BE08951F920F920FB60F92AB
S1130C4011248F939F9380911E0190911F0101960F
S1130C5090931F0180931E019F918F910F900FBE5F
S1130C600F901F9018958FB58E7F8FBD8FB58260C2
S1130C708FBD8EB588608EBD8EB580618EBD8FB5FB
S1130C808B7F8FBD8FB5877F8FBD8FB58F7B8FBDDA
S1130C908FB580688FBD8FB58F7E8FBD8FB5806215
S1130CA08FBD8EB580688EBD8EB58E7F8EBD8EB5A0
S1130CB08D7F8EBD8EB58B7F8EBD8EB582608EBDD1
S1130CC08FE39CE997BD86BD089599BD88BD0895BD
S1130CD09BBD8ABD089540E063E083E00E94CC00A0
S1130CE08AE08A95F1F700C041E063E083E00E9466
S1130CF0CC0085E38A95F1F7000040E063E083E0EF
S1130D000E94CC000895CF93DF931F92CDB7DEB736
S1130D10198210921F0110921E0107C0AE014F5F8D
S1130D205F4F62E083E00E944F0189818823B1F321
S1130D300E94080607C0AE014F5F5F4F62E083E088
S1130D400E944F0189818111F6CF0E941A0680E02A
S1130D5090E090911E0122B7820F911D880F991F78
S1130D60880F991F0F90DF91CF91089541E063E0C0
S1130D7083E00E94490040E062E083E00E94490071
S1130D8008950E946B060E948306BC0180E090E0F7
S1130D900E94090728E23EE74CE05DE30E946F07EA
S1130DA020E030E040E05FE30E946F070E94DA0633
S1130DB0CB0108950E944E0788F09F5798F0B92FF1
S1130DC09927B751B0F0E1F0660F771F881F991F7C
S1130DD01AF0BA95C9F714C0B13091F00E946807AF
S1130DE0B1E008950C946807672F782F8827B85FBF
S1130DF039F0B93FCCF3869577956795B395D9F7D4
S1130E003EF490958095709561957F4F8F4F9F4FDD
S1130E100895E89409C097FB3EF4909580957095E9
S1130E2061957F4F8F4F9F4F9923A9F0F92F96E932
S1130E30BB279395F695879577956795B795F111A7
S1130E40F8CFFAF4BB0F11F460FF1BC06F5F7F4F44
S1130E508F4F9F4F16C0882311F096E911C0772356
S1130E6021F09EE8872F762F05C0662371F096E85F
S1130E70862F70E060E02AF09A95660F771F881F2E
S1130E80DAF7880F9695879597F9089557FD905846
S1130E90440F551F59F05F3F71F04795880F97FB3A
S1130EA0991F61F09F3F79F08795089512161306F4
S1130EB01406551FF2CF4695F1DF08C01616170623
S1130EC01806991FF1CF8695710561050894089558
S1130ED0E894BB2766277727CB0197F908950E94EA
S1130EE082070C94F3070E94E50738F00E94EC0790
S1130EF020F0952311F00C94DC070C94E2071124E4
S1130F000C9469070E94460770F3959FC1F3950FEF
S1130F1050E0551F629FF001729FBB27F00DB11D79
S1130F20639FAA27F00DB11DAA1F649F6627B00D09
S1130F30A11D661F829F2227B00DA11D621F739FF2
S1130F40B00DA11D621F839FA00D611D221F749F00
S1130F503327A00D611D231F849F600D211D822F47
S1130F60762F6A2F11249F5750409AF0F1F088236E
S1130F704AF0EE0FFF1FBB1F661F771F881F91509B
S1130F805040A9F79E3F510580F00C94DC070C9467
S1130F9069075F3FE4F3983ED4F3869577956795A8
S1130FA0B795F795E7959F5FC1F7FE2B880F911DC5
S1130FB09695879597F9089597F99F6780E870E06B
S1130FC060E008959FEF80EC089500240A941616BB
S1130FD0170618060906089500240A941216130623
S1130FE0140605060895092E0394000C11F48823B1
S1130FF052F0BB0F40F4BF2B11F460FF04C06F5FCD
S10F10007F4F8F4F9F4F0895F894FFCF4F
S113100C4D6F766520546F2046726F6E7400536575
S113101C6172636820546F20526967687400536569
S113102C6172636820546F204C656674004D6F7652
S113103C6520546F20526967687431004D6F766572
S113104C20546F20526967687432004D6F766520A6
S113105C546F20526967687433004D6F7665205461
S113106C6F20526967687434004D6F766520546F35
S113107C20526967687435004D6F766520546F2073
S113108C4C65667431004D6F766520546F204C6549
S113109C667432004D6F766520546F204C6566740F
S11310AC33004D6F766520546F204C6566743400A4
S11110BC4D6F766520546F204C6566743500C8
S9030000FC
